{
  "contractName": "TripAdvisorAdd",
  "abi": [
    {
      "constant": true,
      "inputs": [],
      "name": "placeIndex",
      "outputs": [
        {
          "name": "",
          "type": "uint256"
        }
      ],
      "payable": false,
      "stateMutability": "view",
      "type": "function"
    },
    {
      "constant": true,
      "inputs": [],
      "name": "totalTokens",
      "outputs": [
        {
          "name": "",
          "type": "uint256"
        }
      ],
      "payable": false,
      "stateMutability": "view",
      "type": "function"
    },
    {
      "constant": true,
      "inputs": [],
      "name": "tokenPrice",
      "outputs": [
        {
          "name": "",
          "type": "uint256"
        }
      ],
      "payable": false,
      "stateMutability": "view",
      "type": "function"
    },
    {
      "constant": true,
      "inputs": [
        {
          "name": "",
          "type": "address"
        }
      ],
      "name": "adderInfo",
      "outputs": [
        {
          "name": "id",
          "type": "uint256"
        },
        {
          "name": "name",
          "type": "string"
        },
        {
          "name": "category",
          "type": "string"
        },
        {
          "name": "imageLink",
          "type": "string"
        },
        {
          "name": "descLink",
          "type": "string"
        },
        {
          "name": "placeIdAdderAddress",
          "type": "address"
        }
      ],
      "payable": false,
      "stateMutability": "view",
      "type": "function"
    },
    {
      "constant": true,
      "inputs": [],
      "name": "balanceTokens",
      "outputs": [
        {
          "name": "",
          "type": "uint256"
        }
      ],
      "payable": false,
      "stateMutability": "view",
      "type": "function"
    },
    {
      "constant": true,
      "inputs": [
        {
          "name": "",
          "type": "address"
        }
      ],
      "name": "personInfo",
      "outputs": [
        {
          "name": "personAddress",
          "type": "address"
        },
        {
          "name": "tokensBought",
          "type": "uint256"
        }
      ],
      "payable": false,
      "stateMutability": "view",
      "type": "function"
    },
    {
      "inputs": [
        {
          "name": "tokens",
          "type": "uint256"
        },
        {
          "name": "pricePerToken",
          "type": "uint256"
        }
      ],
      "payable": false,
      "stateMutability": "nonpayable",
      "type": "constructor"
    },
    {
      "constant": false,
      "inputs": [],
      "name": "buy",
      "outputs": [],
      "payable": true,
      "stateMutability": "payable",
      "type": "function"
    },
    {
      "constant": false,
      "inputs": [
        {
          "name": "account",
          "type": "address"
        }
      ],
      "name": "transferTo",
      "outputs": [],
      "payable": false,
      "stateMutability": "nonpayable",
      "type": "function"
    },
    {
      "constant": true,
      "inputs": [],
      "name": "tokensSold",
      "outputs": [
        {
          "name": "",
          "type": "uint256"
        }
      ],
      "payable": false,
      "stateMutability": "view",
      "type": "function"
    },
    {
      "constant": true,
      "inputs": [],
      "name": "balanceTokensf",
      "outputs": [
        {
          "name": "",
          "type": "uint256"
        }
      ],
      "payable": false,
      "stateMutability": "view",
      "type": "function"
    },
    {
      "constant": true,
      "inputs": [
        {
          "name": "user",
          "type": "address"
        }
      ],
      "name": "personDetails",
      "outputs": [
        {
          "name": "",
          "type": "uint256"
        }
      ],
      "payable": false,
      "stateMutability": "view",
      "type": "function"
    },
    {
      "constant": true,
      "inputs": [],
      "name": "totalReviews",
      "outputs": [
        {
          "name": "",
          "type": "uint256"
        }
      ],
      "payable": false,
      "stateMutability": "view",
      "type": "function"
    },
    {
      "constant": false,
      "inputs": [
        {
          "name": "_name",
          "type": "string"
        },
        {
          "name": "_category",
          "type": "string"
        },
        {
          "name": "_imageLink",
          "type": "string"
        },
        {
          "name": "_descLink",
          "type": "string"
        },
        {
          "name": "addreviewsInTokens",
          "type": "uint256"
        }
      ],
      "name": "addPlaceReview",
      "outputs": [],
      "payable": false,
      "stateMutability": "nonpayable",
      "type": "function"
    },
    {
      "constant": true,
      "inputs": [
        {
          "name": "_placeId",
          "type": "uint256"
        }
      ],
      "name": "getPlace",
      "outputs": [
        {
          "name": "",
          "type": "uint256"
        },
        {
          "name": "",
          "type": "string"
        },
        {
          "name": "",
          "type": "string"
        },
        {
          "name": "",
          "type": "string"
        },
        {
          "name": "",
          "type": "string"
        }
      ],
      "payable": false,
      "stateMutability": "view",
      "type": "function"
    }
  ],
  "bytecode": "0x6060604052341561000f57600080fd5b6040516040806115008339810160405280805190602001909190805190602001909190505060008081905550816001819055508160028190555080600381905550505061149f806100616000396000f3006060604052600436106100d0576000357c0100000000000000000000000000000000000000000000000000000000900463ffffffff168063197c3555146100d55780633130f7da146102bc57806343a17e96146102e5578063518ab2a8146103325780637e1c0c091461035b5780637ff9b596146103845780638052b6a0146103ad578063a03fa7e3146104dc578063a6f2ae3a14610515578063c5da61041461051f578063da4a935214610548578063e236789014610778578063e4494a0f146107a1578063fb113db1146107ca575b600080fd5b34156100e057600080fd5b6100f6600480803590602001909190505061084a565b6040518086815260200180602001806020018060200180602001858103855289818151815260200191508051906020019080838360005b8381101561014857808201518184015260208101905061012d565b50505050905090810190601f1680156101755780820380516001836020036101000a031916815260200191505b50858103845288818151815260200191508051906020019080838360005b838110156101ae578082015181840152602081019050610193565b50505050905090810190601f1680156101db5780820380516001836020036101000a031916815260200191505b50858103835287818151815260200191508051906020019080838360005b838110156102145780820151818401526020810190506101f9565b50505050905090810190601f1680156102415780820380516001836020036101000a031916815260200191505b50858103825286818151815260200191508051906020019080838360005b8381101561027a57808201518184015260208101905061025f565b50505050905090810190601f1680156102a75780820380516001836020036101000a031916815260200191505b50995050505050505050505060405180910390f35b34156102c757600080fd5b6102cf610c26565b6040518082815260200191505060405180910390f35b34156102f057600080fd5b61031c600480803573ffffffffffffffffffffffffffffffffffffffff16906020019091905050610c2c565b6040518082815260200191505060405180910390f35b341561033d57600080fd5b610345610c78565b6040518082815260200191505060405180910390f35b341561036657600080fd5b61036e610c86565b6040518082815260200191505060405180910390f35b341561038f57600080fd5b610397610c8c565b6040518082815260200191505060405180910390f35b34156103b857600080fd5b6104da600480803590602001908201803590602001908080601f0160208091040260200160405190810160405280939291908181526020018383808284378201915050505050509190803590602001908201803590602001908080601f0160208091040260200160405190810160405280939291908181526020018383808284378201915050505050509190803590602001908201803590602001908080601f0160208091040260200160405190810160405280939291908181526020018383808284378201915050505050509190803590602001908201803590602001908080601f01602080910402602001604051908101604052809392919081815260200183838082843782019150505050505091908035906020019091905050610c92565b005b34156104e757600080fd5b610513600480803573ffffffffffffffffffffffffffffffffffffffff16906020019091905050610ec7565b005b61051d610f21565b005b341561052a57600080fd5b610532611028565b6040518082815260200191505060405180910390f35b341561055357600080fd5b61057f600480803573ffffffffffffffffffffffffffffffffffffffff16906020019091905050611032565b60405180878152602001806020018060200180602001806020018673ffffffffffffffffffffffffffffffffffffffff1673ffffffffffffffffffffffffffffffffffffffff16815260200185810385528a818151815260200191508051906020019080838360005b838110156106035780820151818401526020810190506105e8565b50505050905090810190601f1680156106305780820380516001836020036101000a031916815260200191505b50858103845289818151815260200191508051906020019080838360005b8381101561066957808201518184015260208101905061064e565b50505050905090810190601f1680156106965780820380516001836020036101000a031916815260200191505b50858103835288818151815260200191508051906020019080838360005b838110156106cf5780820151818401526020810190506106b4565b50505050905090810190601f1680156106fc5780820380516001836020036101000a031916815260200191505b50858103825287818151815260200191508051906020019080838360005b8381101561073557808201518184015260208101905061071a565b50505050905090810190601f1680156107625780820380516001836020036101000a031916815260200191505b509a505050505050505050505060405180910390f35b341561078357600080fd5b61078b6112ee565b6040518082815260200191505060405180910390f35b34156107ac57600080fd5b6107b46112f7565b6040518082815260200191505060405180910390f35b34156107d557600080fd5b610801600480803573ffffffffffffffffffffffffffffffffffffffff169060200190919050506112fd565b604051808373ffffffffffffffffffffffffffffffffffffffff1673ffffffffffffffffffffffffffffffffffffffff1681526020018281526020019250505060405180910390f35b6000610854611341565b61085c611341565b610864611341565b61086c611341565b610874611355565b60046000600560008a815260200190815260200160002060009054906101000a900473ffffffffffffffffffffffffffffffffffffffff1673ffffffffffffffffffffffffffffffffffffffff1673ffffffffffffffffffffffffffffffffffffffff168152602001908152602001600020600088815260200190815260200160002060c0604051908101604052908160008201548152602001600182018054600181600116156101000203166002900480601f0160208091040260200160405190810160405280929190818152602001828054600181600116156101000203166002900480156109a65780601f1061097b576101008083540402835291602001916109a6565b820191906000526020600020905b81548152906001019060200180831161098957829003601f168201915b50505050508152602001600282018054600181600116156101000203166002900480601f016020809104026020016040519081016040528092919081815260200182805460018160011615610100020316600290048015610a485780601f10610a1d57610100808354040283529160200191610a48565b820191906000526020600020905b815481529060010190602001808311610a2b57829003601f168201915b50505050508152602001600382018054600181600116156101000203166002900480601f016020809104026020016040519081016040528092919081815260200182805460018160011615610100020316600290048015610aea5780601f10610abf57610100808354040283529160200191610aea565b820191906000526020600020905b815481529060010190602001808311610acd57829003601f168201915b50505050508152602001600482018054600181600116156101000203166002900480601f016020809104026020016040519081016040528092919081815260200182805460018160011615610100020316600290048015610b8c5780601f10610b6157610100808354040283529160200191610b8c565b820191906000526020600020905b815481529060010190602001808311610b6f57829003601f168201915b505050505081526020016005820160009054906101000a900473ffffffffffffffffffffffffffffffffffffffff1673ffffffffffffffffffffffffffffffffffffffff1673ffffffffffffffffffffffffffffffffffffffff1681525050905080600001518160200151826040015183606001518460800151839350829250819150809050955095509550955095505091939590929450565b60005481565b6000600660008373ffffffffffffffffffffffffffffffffffffffff1673ffffffffffffffffffffffffffffffffffffffff168152602001908152602001600020600101549050919050565b600060025460015403905090565b60015481565b60035481565b610c9a611355565b81600660003373ffffffffffffffffffffffffffffffffffffffff1673ffffffffffffffffffffffffffffffffffffffff16815260200190815260200160002060010160008282540392505081905550816002600082825401925050819055506001600080828254019250508190555060c06040519081016040528060005481526020018781526020018681526020018581526020018481526020013373ffffffffffffffffffffffffffffffffffffffff16815250905080600460003373ffffffffffffffffffffffffffffffffffffffff1673ffffffffffffffffffffffffffffffffffffffff168152602001908152602001600020600080548152602001908152602001600020600082015181600001556020820151816001019080519060200190610dca9291906113ba565b506040820151816002019080519060200190610de79291906113ba565b506060820151816003019080519060200190610e049291906113ba565b506080820151816004019080519060200190610e219291906113ba565b5060a08201518160050160006101000a81548173ffffffffffffffffffffffffffffffffffffffff021916908373ffffffffffffffffffffffffffffffffffffffff16021790555090505033600560008054815260200190815260200160002060006101000a81548173ffffffffffffffffffffffffffffffffffffffff021916908373ffffffffffffffffffffffffffffffffffffffff160217905550505050505050565b8073ffffffffffffffffffffffffffffffffffffffff166108fc3073ffffffffffffffffffffffffffffffffffffffff16319081150290604051600060405180830381858888f193505050501515610f1e57600080fd5b50565b600060035434811515610f3057fe5b0490506002548111151515610f4457600080fd5b33600660003373ffffffffffffffffffffffffffffffffffffffff1673ffffffffffffffffffffffffffffffffffffffff16815260200190815260200160002060000160006101000a81548173ffffffffffffffffffffffffffffffffffffffff021916908373ffffffffffffffffffffffffffffffffffffffff16021790555080600660003373ffffffffffffffffffffffffffffffffffffffff1673ffffffffffffffffffffffffffffffffffffffff168152602001908152602001600020600101600082825401925050819055508060026000828254039250508190555050565b6000600254905090565b6007602052806000526040600020600091509050806000015490806001018054600181600116156101000203166002900480601f0160208091040260200160405190810160405280929190818152602001828054600181600116156101000203166002900480156110e45780601f106110b9576101008083540402835291602001916110e4565b820191906000526020600020905b8154815290600101906020018083116110c757829003601f168201915b505050505090806002018054600181600116156101000203166002900480601f0160208091040260200160405190810160405280929190818152602001828054600181600116156101000203166002900480156111825780601f1061115757610100808354040283529160200191611182565b820191906000526020600020905b81548152906001019060200180831161116557829003601f168201915b505050505090806003018054600181600116156101000203166002900480601f0160208091040260200160405190810160405280929190818152602001828054600181600116156101000203166002900480156112205780601f106111f557610100808354040283529160200191611220565b820191906000526020600020905b81548152906001019060200180831161120357829003601f168201915b505050505090806004018054600181600116156101000203166002900480601f0160208091040260200160405190810160405280929190818152602001828054600181600116156101000203166002900480156112be5780601f10611293576101008083540402835291602001916112be565b820191906000526020600020905b8154815290600101906020018083116112a157829003601f168201915b5050505050908060050160009054906101000a900473ffffffffffffffffffffffffffffffffffffffff16905086565b60008054905090565b60025481565b60066020528060005260406000206000915090508060000160009054906101000a900473ffffffffffffffffffffffffffffffffffffffff16908060010154905082565b602060405190810160405280600081525090565b60c0604051908101604052806000815260200161137061143a565b815260200161137d61143a565b815260200161138a61143a565b815260200161139761143a565b8152602001600073ffffffffffffffffffffffffffffffffffffffff1681525090565b828054600181600116156101000203166002900490600052602060002090601f016020900481019282601f106113fb57805160ff1916838001178555611429565b82800160010185558215611429579182015b8281111561142857825182559160200191906001019061140d565b5b509050611436919061144e565b5090565b602060405190810160405280600081525090565b61147091905b8082111561146c576000816000905550600101611454565b5090565b905600a165627a7a72305820d3d0c42da6ae281c61e1557223f6b4035dacc6571f85353b5487dbe58b62cd9e0029",
  "source": "\r\npragma solidity ^0.4.13;\r\n\r\ncontract TripAdvisorAdd {\r\n\r\n    uint public placeIndex;\r\n    uint public totalTokens; \r\n    uint public balanceTokens; \r\n    uint public tokenPrice; \r\n\r\n    mapping (address => mapping(uint => Place)) places;\r\n    mapping (uint => address) placeIDinPortal; //Who added the place\r\n    //mapping (address => mapping(uint => Product)) stores;\r\n    //mapping (address => mapping(address => Place)) placeIdAdderAddress;\r\n    mapping (address => person) public personInfo;\r\n    mapping (address => Place) public adderInfo;\r\n    //Place[] public places;\r\n    struct Place {\r\n        uint id;\r\n        string name;\r\n        string category;\r\n        string imageLink;\r\n        string descLink;\r\n\r\n        //Test\r\n        address placeIdAdderAddress;\r\n    }\r\n\r\n    struct person {\r\n        address personAddress; \r\n        uint tokensBought;    \r\n    }\r\n    //Constructor\r\n    function TripAdvisorAdd(uint tokens, uint pricePerToken) public {\r\n        placeIndex = 0;\r\n        totalTokens = tokens;\r\n        balanceTokens = tokens;\r\n        tokenPrice = pricePerToken;\r\n    }\r\n\r\n    function buy() payable public \r\n    {\r\n        uint tokensToBuy = msg.value / tokenPrice;\r\n        require(tokensToBuy <= balanceTokens);\r\n        personInfo[msg.sender].personAddress = msg.sender;\r\n        personInfo[msg.sender].tokensBought += tokensToBuy;\r\n        balanceTokens -= tokensToBuy;\r\n        \r\n    }\r\n   \r\n    function transferTo(address account) public {\r\n        account.transfer(address(this).balance);\r\n    }\r\n\r\n    function tokensSold() view public returns (uint) {\r\n        return totalTokens - balanceTokens;\r\n    }\r\n\r\n    function balanceTokensf() view public returns (uint) {\r\n        return balanceTokens;\r\n    }\r\n\r\n    function personDetails(address user) view public returns (uint) {\r\n        //personInfo[user].tokensBought -= 3;\r\n        return (personInfo[user].tokensBought);\r\n    }\r\n\r\n    function totalReviews() view public returns (uint) {\r\n        return placeIndex;\r\n    }\r\n\r\n    function addPlaceReview(string _name, string _category, string _imageLink, string _descLink, uint addreviewsInTokens) public  {\r\n        //uint availableTokens = reviewerInfo[msg.sender].tokensBought - addreviewsInTokens;\r\n        // require(reviewerInfo[msg.sender].tokensBought >= addreviewsInTokens);\r\n        \r\n        //require(addreviewsInTokens <= personInfo[msg.sender].tokensBought);\r\n        personInfo[msg.sender].tokensBought -= addreviewsInTokens;\r\n        balanceTokens += addreviewsInTokens;\r\n        placeIndex += 1;\r\n        \r\n        //reviewerInfo[msg.sender].reviewerAddress = msg.sender;\r\n        Place memory place = Place(placeIndex, _name, _category, _imageLink, _descLink, msg.sender);\r\n        places[msg.sender][placeIndex] = place;\r\n        placeIDinPortal[placeIndex] = msg.sender;\r\n        //placeIDinPortal[placeIndex] = msg.sender;\r\n        //reviews[msg.sender][placeIdAdderAddress] = msg.sender;\r\n        //reviewerInfo[msg.sender].reviewId = placeIndex;\r\n        //reviewerInfo[msg.sender].tokensUsedPerreview[placeIndex] += addreviewsInTokens;\r\n    \r\n    }\r\n\r\n    function getPlace(uint _placeId) view public returns (uint, string, string, string, string) {\r\n        Place memory place = places [placeIDinPortal[_placeId]][_placeId];\r\n        return (place.id, place.name, place.category, place.imageLink, place.descLink);\r\n    }\r\n}\r\n",
  "sourcePath": "C:\\Users\\Ranjith Kanaralli\\Desktop\\TripAdvisor_DApp_V2\\contracts\\TripAdvisorAdd.sol",
  "compiler": {
    "name": "solc",
    "version": "0.4.21+commit.dfe3193c.Emscripten.clang"
  },
  "schemaVersion": "2.0.0",
  "updatedAt": "2018-04-26T15:08:52.377Z"
}